{
  "contractName": "ZombieFeeding",
  "abi": [
    {
      "anonymous": false,
      "inputs": [
        {
          "indexed": false,
          "internalType": "uint256",
          "name": "zombieId",
          "type": "uint256"
        },
        {
          "indexed": false,
          "internalType": "string",
          "name": "name",
          "type": "string"
        },
        {
          "indexed": false,
          "internalType": "uint256",
          "name": "dna",
          "type": "uint256"
        }
      ],
      "name": "NewZombie",
      "type": "event"
    },
    {
      "anonymous": false,
      "inputs": [
        {
          "indexed": true,
          "internalType": "address",
          "name": "previousOwner",
          "type": "address"
        },
        {
          "indexed": true,
          "internalType": "address",
          "name": "newOwner",
          "type": "address"
        }
      ],
      "name": "OwnershipTransferred",
      "type": "event"
    },
    {
      "inputs": [
        {
          "internalType": "string",
          "name": "_name",
          "type": "string"
        }
      ],
      "name": "createRandomZombie",
      "outputs": [],
      "stateMutability": "nonpayable",
      "type": "function"
    },
    {
      "inputs": [],
      "name": "isOwner",
      "outputs": [
        {
          "internalType": "bool",
          "name": "",
          "type": "bool"
        }
      ],
      "stateMutability": "view",
      "type": "function"
    },
    {
      "inputs": [],
      "name": "owner",
      "outputs": [
        {
          "internalType": "address",
          "name": "",
          "type": "address"
        }
      ],
      "stateMutability": "view",
      "type": "function"
    },
    {
      "inputs": [],
      "name": "renounceOwnership",
      "outputs": [],
      "stateMutability": "nonpayable",
      "type": "function"
    },
    {
      "inputs": [
        {
          "internalType": "address",
          "name": "newOwner",
          "type": "address"
        }
      ],
      "name": "transferOwnership",
      "outputs": [],
      "stateMutability": "nonpayable",
      "type": "function"
    },
    {
      "inputs": [
        {
          "internalType": "uint256",
          "name": "",
          "type": "uint256"
        }
      ],
      "name": "zombieToOwner",
      "outputs": [
        {
          "internalType": "address",
          "name": "",
          "type": "address"
        }
      ],
      "stateMutability": "view",
      "type": "function"
    },
    {
      "inputs": [
        {
          "internalType": "uint256",
          "name": "",
          "type": "uint256"
        }
      ],
      "name": "zombies",
      "outputs": [
        {
          "internalType": "string",
          "name": "name",
          "type": "string"
        },
        {
          "internalType": "uint256",
          "name": "dna",
          "type": "uint256"
        },
        {
          "internalType": "uint32",
          "name": "level",
          "type": "uint32"
        },
        {
          "internalType": "uint32",
          "name": "readyTime",
          "type": "uint32"
        },
        {
          "internalType": "uint16",
          "name": "winCount",
          "type": "uint16"
        },
        {
          "internalType": "uint16",
          "name": "loseCount",
          "type": "uint16"
        }
      ],
      "stateMutability": "view",
      "type": "function"
    },
    {
      "inputs": [
        {
          "internalType": "address",
          "name": "_address",
          "type": "address"
        }
      ],
      "name": "setKittyContractAddress",
      "outputs": [],
      "stateMutability": "nonpayable",
      "type": "function"
    },
    {
      "inputs": [
        {
          "internalType": "uint256",
          "name": "_zombieId",
          "type": "uint256"
        },
        {
          "internalType": "uint256",
          "name": "_kittyId",
          "type": "uint256"
        }
      ],
      "name": "feedOnKitty",
      "outputs": [],
      "stateMutability": "nonpayable",
      "type": "function"
    }
  ],
  "bytecode": "0x60806040526010600155600154600a6200001a91906200014e565b600255620151806003553480156200003157600080fd5b50336000806101000a81548173ffffffffffffffffffffffffffffffffffffffff021916908373ffffffffffffffffffffffffffffffffffffffff16021790555060008054906101000a900473ffffffffffffffffffffffffffffffffffffffff1673ffffffffffffffffffffffffffffffffffffffff16600073ffffffffffffffffffffffffffffffffffffffff167f8be0079c531659141344cd1fd0a4f28419497f9722a3daafe3b4186f6b6457e060405160405180910390a3620002d1565b6000808291508390505b600185111562000145578086048111156200011d576200011c62000295565b5b60018516156200012d5780820291505b80810290506200013d85620002c4565b9450620000fd565b94509492505050565b60006200015b826200028b565b915062000168836200028b565b9250620001977fffffffffffffffffffffffffffffffffffffffffffffffffffffffffffffffff84846200019f565b905092915050565b600082620001b1576001905062000284565b81620001c1576000905062000284565b8160018114620001da5760028114620001e5576200021b565b600191505062000284565b60ff841115620001fa57620001f962000295565b5b8360020a91508482111562000214576200021362000295565b5b5062000284565b5060208310610133831016604e8410600b8410161715620002555782820a9050838111156200024f576200024e62000295565b5b62000284565b620002648484846001620000f3565b925090508184048111156200027e576200027d62000295565b5b81810290505b9392505050565b6000819050919050565b7f4e487b7100000000000000000000000000000000000000000000000000000000600052601160045260246000fd5b60008160011c9050919050565b61159c80620002e16000396000f3fe608060405234801561001057600080fd5b50600436106100935760003560e01c8063715018a611610066578063715018a6146101355780637bff0a011461013f5780638da5cb5b1461015b5780638f32d59b14610179578063f2fde38b1461019757610093565b806317a7f4cc146100985780632052465e146100b4578063528b7b8f146100e95780635f4623f114610119575b600080fd5b6100b260048036038101906100ad9190610f0a565b6101b3565b005b6100ce60048036038101906100c99190610edd565b6102e0565b6040516100e096959493929190611084565b60405180910390f35b61010360048036038101906100fe9190610edd565b6103f0565b604051610110919061104e565b60405180910390f35b610133600480360381019061012e9190610d88565b610423565b005b61013d610478565b005b61015960048036038101906101549190610e94565b610547565b005b610163610562565b604051610170919061104e565b60405180910390f35b61018161058b565b60405161018e9190611069565b60405180910390f35b6101b160048036038101906101ac9190610d88565b6105e2565b005b6000600760009054906101000a900473ffffffffffffffffffffffffffffffffffffffff1673ffffffffffffffffffffffffffffffffffffffff1663e98b7f4d836040518263ffffffff1660e01b815260040161021091906110ec565b6101406040518083038186803b15801561022957600080fd5b505afa15801561023d573d6000803e3d6000fd5b505050506040513d601f19601f820116820180604052508101906102619190610db5565b909192939495969798509091929394959697509091929394959650909192939495509091929394509091929350909192509091509050809150506102db83826040518060400160405280600581526020017f6b697474790000000000000000000000000000000000000000000000000000008152506105ff565b505050565b600481815481106102f057600080fd5b906000526020600020906003020160009150905080600001805461031390611325565b80601f016020809104026020016040519081016040528092919081815260200182805461033f90611325565b801561038c5780601f106103615761010080835404028352916020019161038c565b820191906000526020600020905b81548152906001019060200180831161036f57829003601f168201915b5050505050908060010154908060020160009054906101000a900463ffffffff16908060020160049054906101000a900463ffffffff16908060020160089054906101000a900461ffff169080600201600a9054906101000a900461ffff16905086565b60056020528060005260406000206000915054906101000a900473ffffffffffffffffffffffffffffffffffffffff1681565b61042b61058b565b61043457600080fd5b80600760006101000a81548173ffffffffffffffffffffffffffffffffffffffff021916908373ffffffffffffffffffffffffffffffffffffffff16021790555050565b61048061058b565b61048957600080fd5b600073ffffffffffffffffffffffffffffffffffffffff1660008054906101000a900473ffffffffffffffffffffffffffffffffffffffff1673ffffffffffffffffffffffffffffffffffffffff167f8be0079c531659141344cd1fd0a4f28419497f9722a3daafe3b4186f6b6457e060405160405180910390a360008060006101000a81548173ffffffffffffffffffffffffffffffffffffffff021916908373ffffffffffffffffffffffffffffffffffffffff160217905550565b60006105528261079c565b905061055e82826107e1565b5050565b60008060009054906101000a900473ffffffffffffffffffffffffffffffffffffffff16905090565b60008060009054906101000a900473ffffffffffffffffffffffffffffffffffffffff1673ffffffffffffffffffffffffffffffffffffffff163373ffffffffffffffffffffffffffffffffffffffff1614905090565b6105ea61058b565b6105f357600080fd5b6105fc81610aa4565b50565b823373ffffffffffffffffffffffffffffffffffffffff166005600083815260200190815260200160002060009054906101000a900473ffffffffffffffffffffffffffffffffffffffff1673ffffffffffffffffffffffffffffffffffffffff161461066b57600080fd5b60006004858154811061068157610680611475565b5b9060005260206000209060030201905061069a81610b9b565b6106a357600080fd5b600254846106b19190611388565b9350600060028583600101546106c791906111c2565b6106d19190611218565b90506040516020016106e290611039565b60405160208183030381529060405280519060200120846040516020016107099190611022565b60405160208183030381529060405280519060200120141561074c5760636064826107349190611388565b8261073f9190611249565b61074991906111c2565b90505b61078b6040518060400160405280600681526020017f4e6f4e616d650000000000000000000000000000000000000000000000000000815250826107e1565b61079482610bc2565b505050505050565b600080826040516020016107b09190611022565b6040516020818303038152906040528051906020012060001c9050600254816107d99190611388565b915050919050565b6000600660003373ffffffffffffffffffffffffffffffffffffffff1673ffffffffffffffffffffffffffffffffffffffff168152602001908152602001600020541461082d57600080fd5b60046040518060c00160405280848152602001838152602001600163ffffffff1681526020016003544261086191906111c2565b63ffffffff168152602001600061ffff168152602001600061ffff16815250908060018154018082558091505060019003906000526020600020906003020160009091909190915060008201518160000190805190602001906108c5929190610c21565b506020820151816001015560408201518160020160006101000a81548163ffffffff021916908363ffffffff16021790555060608201518160020160046101000a81548163ffffffff021916908363ffffffff16021790555060808201518160020160086101000a81548161ffff021916908361ffff16021790555060a082015181600201600a6101000a81548161ffff021916908361ffff16021790555050506000600160048054905061097a9190611249565b9050336005600083815260200190815260200160002060006101000a81548173ffffffffffffffffffffffffffffffffffffffff021916908373ffffffffffffffffffffffffffffffffffffffff160217905550610a216001600660003373ffffffffffffffffffffffffffffffffffffffff1673ffffffffffffffffffffffffffffffffffffffff16815260200190815260200160002054610bf590919063ffffffff16565b600660003373ffffffffffffffffffffffffffffffffffffffff1673ffffffffffffffffffffffffffffffffffffffff168152602001908152602001600020819055507f88f026aacbbecc90c18411df4b1185fd8d9be2470f1962f192bf84a27d0704b7818484604051610a9793929190611107565b60405180910390a1505050565b600073ffffffffffffffffffffffffffffffffffffffff168173ffffffffffffffffffffffffffffffffffffffff161415610ade57600080fd5b8073ffffffffffffffffffffffffffffffffffffffff1660008054906101000a900473ffffffffffffffffffffffffffffffffffffffff1673ffffffffffffffffffffffffffffffffffffffff167f8be0079c531659141344cd1fd0a4f28419497f9722a3daafe3b4186f6b6457e060405160405180910390a3806000806101000a81548173ffffffffffffffffffffffffffffffffffffffff021916908373ffffffffffffffffffffffffffffffffffffffff16021790555050565b6000428260020160049054906101000a900463ffffffff1663ffffffff1611159050919050565b60035442610bd091906111c2565b8160020160046101000a81548163ffffffff021916908363ffffffff16021790555050565b6000808284610c0491906111c2565b905083811015610c1757610c166113b9565b5b8091505092915050565b828054610c2d90611325565b90600052602060002090601f016020900481019282610c4f5760008555610c96565b82601f10610c6857805160ff1916838001178555610c96565b82800160010185558215610c96579182015b82811115610c95578251825591602001919060010190610c7a565b5b509050610ca39190610ca7565b5090565b5b80821115610cc0576000816000905550600101610ca8565b5090565b6000610cd7610cd28461116a565b611145565b905082815260208101848484011115610cf357610cf26114d8565b5b610cfe8482856112e3565b509392505050565b600081359050610d1581611521565b92915050565b600081519050610d2a81611538565b92915050565b600082601f830112610d4557610d446114d3565b5b8135610d55848260208601610cc4565b91505092915050565b600081359050610d6d8161154f565b92915050565b600081519050610d828161154f565b92915050565b600060208284031215610d9e57610d9d6114e2565b5b6000610dac84828501610d06565b91505092915050565b6000806000806000806000806000806101408b8d031215610dd957610dd86114e2565b5b6000610de78d828e01610d1b565b9a50506020610df88d828e01610d1b565b9950506040610e098d828e01610d73565b9850506060610e1a8d828e01610d73565b9750506080610e2b8d828e01610d73565b96505060a0610e3c8d828e01610d73565b95505060c0610e4d8d828e01610d73565b94505060e0610e5e8d828e01610d73565b935050610100610e708d828e01610d73565b925050610120610e828d828e01610d73565b9150509295989b9194979a5092959850565b600060208284031215610eaa57610ea96114e2565b5b600082013567ffffffffffffffff811115610ec857610ec76114dd565b5b610ed484828501610d30565b91505092915050565b600060208284031215610ef357610ef26114e2565b5b6000610f0184828501610d5e565b91505092915050565b60008060408385031215610f2157610f206114e2565b5b6000610f2f85828601610d5e565b9250506020610f4085828601610d5e565b9150509250929050565b610f538161127d565b82525050565b610f628161128f565b82525050565b6000610f738261119b565b610f7d81856111a6565b9350610f8d8185602086016112f2565b610f96816114e7565b840191505092915050565b6000610fac8261119b565b610fb681856111b7565b9350610fc68185602086016112f2565b80840191505092915050565b6000610fdf6005836111b7565b9150610fea826114f8565b600582019050919050565b610ffe8161129b565b82525050565b61100d816112c9565b82525050565b61101c816112d3565b82525050565b600061102e8284610fa1565b915081905092915050565b600061104482610fd2565b9150819050919050565b60006020820190506110636000830184610f4a565b92915050565b600060208201905061107e6000830184610f59565b92915050565b600060c082019050818103600083015261109e8189610f68565b90506110ad6020830188611004565b6110ba6040830187611013565b6110c76060830186611013565b6110d46080830185610ff5565b6110e160a0830184610ff5565b979650505050505050565b60006020820190506111016000830184611004565b92915050565b600060608201905061111c6000830186611004565b818103602083015261112e8185610f68565b905061113d6040830184611004565b949350505050565b600061114f611160565b905061115b8282611357565b919050565b6000604051905090565b600067ffffffffffffffff821115611185576111846114a4565b5b61118e826114e7565b9050602081019050919050565b600081519050919050565b600082825260208201905092915050565b600081905092915050565b60006111cd826112c9565b91506111d8836112c9565b9250827fffffffffffffffffffffffffffffffffffffffffffffffffffffffffffffffff0382111561120d5761120c6113e8565b5b828201905092915050565b6000611223826112c9565b915061122e836112c9565b92508261123e5761123d611417565b5b828204905092915050565b6000611254826112c9565b915061125f836112c9565b925082821015611272576112716113e8565b5b828203905092915050565b6000611288826112a9565b9050919050565b60008115159050919050565b600061ffff82169050919050565b600073ffffffffffffffffffffffffffffffffffffffff82169050919050565b6000819050919050565b600063ffffffff82169050919050565b82818337600083830152505050565b60005b838110156113105780820151818401526020810190506112f5565b8381111561131f576000848401525b50505050565b6000600282049050600182168061133d57607f821691505b6020821081141561135157611350611446565b5b50919050565b611360826114e7565b810181811067ffffffffffffffff8211171561137f5761137e6114a4565b5b80604052505050565b6000611393826112c9565b915061139e836112c9565b9250826113ae576113ad611417565b5b828206905092915050565b7f4e487b7100000000000000000000000000000000000000000000000000000000600052600160045260246000fd5b7f4e487b7100000000000000000000000000000000000000000000000000000000600052601160045260246000fd5b7f4e487b7100000000000000000000000000000000000000000000000000000000600052601260045260246000fd5b7f4e487b7100000000000000000000000000000000000000000000000000000000600052602260045260246000fd5b7f4e487b7100000000000000000000000000000000000000000000000000000000600052603260045260246000fd5b7f4e487b7100000000000000000000000000000000000000000000000000000000600052604160045260246000fd5b600080fd5b600080fd5b600080fd5b600080fd5b6000601f19601f8301169050919050565b7f6b69747479000000000000000000000000000000000000000000000000000000600082015250565b61152a8161127d565b811461153557600080fd5b50565b6115418161128f565b811461154c57600080fd5b50565b611558816112c9565b811461156357600080fd5b5056fea2646970667358221220b084ae6ec26d664bb8b1729579ff5cb0d20c8c5baf73c8a67b6340cc58437ae864736f6c63430008060033",
  "immutableReferences": {},
  "source": "// SPDX-License-Identifier: MIT\npragma solidity ^0.8.0;\n\nimport \"./ZombieFactory.sol\";\n\nabstract contract KittyInterface {\n    function getKitty(uint256 _id)\n        external\n        view\n        virtual\n        returns (\n            bool isGestating,\n            bool isReady,\n            uint256 cooldownIndex,\n            uint256 nextActionAt,\n            uint256 siringWithId,\n            uint256 birthTime,\n            uint256 matronId,\n            uint256 sireId,\n            uint256 generation,\n            uint256 genes\n        );\n}\n\ncontract ZombieFeeding is ZombieFactory {\n    KittyInterface kittyContract;\n\n    modifier onlyOwnerOf(uint256 _zombieId) {\n        require(zombieToOwner[_zombieId] == msg.sender);\n        _;\n    }\n\n    function setKittyContractAddress(address _address) external onlyOwner {\n        kittyContract = KittyInterface(_address);\n    }\n\n    function feedAndMultiply(\n        uint256 _zombieId,\n        uint256 _targetDna,\n        string memory _species\n    ) internal onlyOwnerOf(_zombieId) {\n        Zombie storage myZombie = zombies[_zombieId];\n        require(_isReady(myZombie));\n        _targetDna = _targetDna % dnaModulus;\n        uint256 newDna = (myZombie.dna + _targetDna) / 2;\n\n        if (\n            keccak256(abi.encodePacked(_species)) ==\n            keccak256(abi.encodePacked(\"kitty\"))\n        ) {\n            newDna = newDna - (newDna % 100) + 99;\n        }\n        _createZombie(\"NoName\", newDna);\n        _triggerCooldown(myZombie);\n    }\n\n    function feedOnKitty(uint256 _zombieId, uint256 _kittyId) public {\n        uint256 kittyDna;\n        (, , , , , , , , , kittyDna) = kittyContract.getKitty(_kittyId);\n        feedAndMultiply(_zombieId, kittyDna, \"kitty\");\n    }\n\n    function _triggerCooldown(Zombie storage _zombie) internal {\n        _zombie.readyTime = uint32(block.timestamp + cooldown);\n    }\n\n    function _isReady(Zombie storage _zombie) internal view returns (bool) {\n        return _zombie.readyTime <= block.timestamp;\n    }\n}\n",
  "sourcePath": "/home/elite/coding/solidity/contracts/ZombieFeeding.sol",
  "compiler": {
    "name": "solc",
    "version": "0.8.6+commit.11564f7e.Emscripten.clang"
  },
  "schemaVersion": "3.4.1",
  "updatedAt": "2021-07-02T05:37:12.526Z",
  "devdoc": {
    "kind": "dev",
    "methods": {
      "isOwner()": {
        "returns": {
          "_0": "true if `msg.sender` is the owner of the contract."
        }
      },
      "owner()": {
        "returns": {
          "_0": "the address of the owner."
        }
      },
      "renounceOwnership()": {
        "details": "Allows the current owner to relinquish control of the contract."
      },
      "transferOwnership(address)": {
        "details": "Allows the current owner to transfer control of the contract to a newOwner.",
        "params": {
          "newOwner": "The address to transfer ownership to."
        }
      }
    },
    "version": 1
  },
  "userdoc": {
    "kind": "user",
    "methods": {
      "renounceOwnership()": {
        "notice": "Renouncing to ownership will leave the contract without an owner. It will not be possible to call the functions with the `onlyOwner` modifier anymore."
      }
    },
    "version": 1
  }
}